{
  "abi": [
    {
      "inputs": [
        {
          "internalType": "string",
          "name": "_name",
          "type": "string"
        },
        {
          "internalType": "string",
          "name": "_symbol",
          "type": "string"
        }
      ],
      "stateMutability": "nonpayable",
      "type": "constructor"
    },
    {
      "anonymous": false,
      "inputs": [
        {
          "indexed": true,
          "internalType": "address",
          "name": "owner",
          "type": "address"
        },
        {
          "indexed": true,
          "internalType": "address",
          "name": "spender",
          "type": "address"
        },
        {
          "indexed": true,
          "internalType": "uint256",
          "name": "id",
          "type": "uint256"
        }
      ],
      "name": "Approval",
      "type": "event"
    },
    {
      "anonymous": false,
      "inputs": [
        {
          "indexed": true,
          "internalType": "address",
          "name": "owner",
          "type": "address"
        },
        {
          "indexed": true,
          "internalType": "address",
          "name": "operator",
          "type": "address"
        },
        {
          "indexed": false,
          "internalType": "bool",
          "name": "approved",
          "type": "bool"
        }
      ],
      "name": "ApprovalForAll",
      "type": "event"
    },
    {
      "anonymous": false,
      "inputs": [
        {
          "indexed": true,
          "internalType": "address",
          "name": "from",
          "type": "address"
        },
        {
          "indexed": true,
          "internalType": "address",
          "name": "to",
          "type": "address"
        },
        {
          "indexed": true,
          "internalType": "uint256",
          "name": "id",
          "type": "uint256"
        }
      ],
      "name": "Transfer",
      "type": "event"
    },
    {
      "inputs": [
        {
          "internalType": "address",
          "name": "spender",
          "type": "address"
        },
        {
          "internalType": "uint256",
          "name": "id",
          "type": "uint256"
        }
      ],
      "name": "approve",
      "outputs": [],
      "stateMutability": "nonpayable",
      "type": "function"
    },
    {
      "inputs": [
        {
          "internalType": "address",
          "name": "owner",
          "type": "address"
        }
      ],
      "name": "balanceOf",
      "outputs": [
        {
          "internalType": "uint256",
          "name": "",
          "type": "uint256"
        }
      ],
      "stateMutability": "view",
      "type": "function"
    },
    {
      "inputs": [
        {
          "internalType": "uint256",
          "name": "tokenId",
          "type": "uint256"
        }
      ],
      "name": "burn",
      "outputs": [
        {
          "internalType": "bool",
          "name": "",
          "type": "bool"
        }
      ],
      "stateMutability": "payable",
      "type": "function"
    },
    {
      "inputs": [],
      "name": "currentTokenId",
      "outputs": [
        {
          "internalType": "uint256",
          "name": "",
          "type": "uint256"
        }
      ],
      "stateMutability": "view",
      "type": "function"
    },
    {
      "inputs": [
        {
          "internalType": "uint256",
          "name": "",
          "type": "uint256"
        }
      ],
      "name": "getApproved",
      "outputs": [
        {
          "internalType": "address",
          "name": "",
          "type": "address"
        }
      ],
      "stateMutability": "view",
      "type": "function"
    },
    {
      "inputs": [
        {
          "internalType": "address",
          "name": "",
          "type": "address"
        },
        {
          "internalType": "address",
          "name": "",
          "type": "address"
        }
      ],
      "name": "isApprovedForAll",
      "outputs": [
        {
          "internalType": "bool",
          "name": "",
          "type": "bool"
        }
      ],
      "stateMutability": "view",
      "type": "function"
    },
    {
      "inputs": [
        {
          "internalType": "address",
          "name": "recipient",
          "type": "address"
        }
      ],
      "name": "mintTo",
      "outputs": [
        {
          "internalType": "bool",
          "name": "",
          "type": "bool"
        }
      ],
      "stateMutability": "payable",
      "type": "function"
    },
    {
      "inputs": [],
      "name": "name",
      "outputs": [
        {
          "internalType": "string",
          "name": "",
          "type": "string"
        }
      ],
      "stateMutability": "view",
      "type": "function"
    },
    {
      "inputs": [
        {
          "internalType": "uint256",
          "name": "id",
          "type": "uint256"
        }
      ],
      "name": "ownerOf",
      "outputs": [
        {
          "internalType": "address",
          "name": "owner",
          "type": "address"
        }
      ],
      "stateMutability": "view",
      "type": "function"
    },
    {
      "inputs": [
        {
          "internalType": "address",
          "name": "from",
          "type": "address"
        },
        {
          "internalType": "address",
          "name": "to",
          "type": "address"
        },
        {
          "internalType": "uint256",
          "name": "id",
          "type": "uint256"
        }
      ],
      "name": "safeTransferFrom",
      "outputs": [],
      "stateMutability": "nonpayable",
      "type": "function"
    },
    {
      "inputs": [
        {
          "internalType": "address",
          "name": "from",
          "type": "address"
        },
        {
          "internalType": "address",
          "name": "to",
          "type": "address"
        },
        {
          "internalType": "uint256",
          "name": "id",
          "type": "uint256"
        },
        {
          "internalType": "bytes",
          "name": "data",
          "type": "bytes"
        }
      ],
      "name": "safeTransferFrom",
      "outputs": [],
      "stateMutability": "nonpayable",
      "type": "function"
    },
    {
      "inputs": [
        {
          "internalType": "address",
          "name": "operator",
          "type": "address"
        },
        {
          "internalType": "bool",
          "name": "approved",
          "type": "bool"
        }
      ],
      "name": "setApprovalForAll",
      "outputs": [],
      "stateMutability": "nonpayable",
      "type": "function"
    },
    {
      "inputs": [
        {
          "internalType": "bytes4",
          "name": "interfaceId",
          "type": "bytes4"
        }
      ],
      "name": "supportsInterface",
      "outputs": [
        {
          "internalType": "bool",
          "name": "",
          "type": "bool"
        }
      ],
      "stateMutability": "view",
      "type": "function"
    },
    {
      "inputs": [],
      "name": "symbol",
      "outputs": [
        {
          "internalType": "string",
          "name": "",
          "type": "string"
        }
      ],
      "stateMutability": "view",
      "type": "function"
    },
    {
      "inputs": [
        {
          "internalType": "uint256",
          "name": "id",
          "type": "uint256"
        }
      ],
      "name": "tokenURI",
      "outputs": [
        {
          "internalType": "string",
          "name": "",
          "type": "string"
        }
      ],
      "stateMutability": "view",
      "type": "function"
    },
    {
      "inputs": [
        {
          "internalType": "address",
          "name": "from",
          "type": "address"
        },
        {
          "internalType": "address",
          "name": "to",
          "type": "address"
        },
        {
          "internalType": "uint256",
          "name": "id",
          "type": "uint256"
        }
      ],
      "name": "transferFrom",
      "outputs": [],
      "stateMutability": "nonpayable",
      "type": "function"
    }
  ],
  "bytecode": {
    "object": "0x60806040523480156200001157600080fd5b5060405162001485380380620014858339810160408190526200003491620001e1565b8151829082906200004d9060009060208501906200006e565b508051620000639060019060208401906200006e565b505050505062000287565b8280546200007c906200024b565b90600052602060002090601f016020900481019282620000a05760008555620000eb565b82601f10620000bb57805160ff1916838001178555620000eb565b82800160010185558215620000eb579182015b82811115620000eb578251825591602001919060010190620000ce565b50620000f9929150620000fd565b5090565b5b80821115620000f95760008155600101620000fe565b634e487b7160e01b600052604160045260246000fd5b600082601f8301126200013c57600080fd5b81516001600160401b038082111562000159576200015962000114565b604051601f8301601f19908116603f0116810190828211818310171562000184576200018462000114565b81604052838152602092508683858801011115620001a157600080fd5b600091505b83821015620001c55785820183015181830184015290820190620001a6565b83821115620001d75760008385830101525b9695505050505050565b60008060408385031215620001f557600080fd5b82516001600160401b03808211156200020d57600080fd5b6200021b868387016200012a565b935060208501519150808211156200023257600080fd5b5062000241858286016200012a565b9150509250929050565b600181811c908216806200026057607f821691505b6020821081036200028157634e487b7160e01b600052602260045260246000fd5b50919050565b6111ee80620002976000396000f3fe6080604052600436106100f25760003560e01c80636352211e1161008a578063a22cb46511610059578063a22cb4651461029d578063b88d4fde146102bd578063c87b56dd146102dd578063e985e9c5146102fd57600080fd5b80636352211e1461023557806370a0823114610255578063755edd171461027557806395d89b411461028857600080fd5b8063095ea7b3116100c6578063095ea7b3146101c057806323b872dd146101e257806342842e0e1461020257806342966c681461022257600080fd5b80629a9b7b146100f757806301ffc9a71461012057806306fdde0314610150578063081812fc14610172575b600080fd5b34801561010357600080fd5b5061010d60065481565b6040519081526020015b60405180910390f35b34801561012c57600080fd5b5061014061013b366004610e72565b610338565b6040519015158152602001610117565b34801561015c57600080fd5b5061016561038a565b6040516101179190610e96565b34801561017e57600080fd5b506101a861018d366004610eeb565b6004602052600090815260409020546001600160a01b031681565b6040516001600160a01b039091168152602001610117565b3480156101cc57600080fd5b506101e06101db366004610f1b565b610418565b005b3480156101ee57600080fd5b506101e06101fd366004610f45565b6104ff565b34801561020e57600080fd5b506101e061021d366004610f45565b6106c6565b610140610230366004610eeb565b61079b565b34801561024157600080fd5b506101a8610250366004610eeb565b610817565b34801561026157600080fd5b5061010d610270366004610f81565b61086e565b610140610283366004610f81565b6108d1565b34801561029457600080fd5b506101656108fd565b3480156102a957600080fd5b506101e06102b8366004610f9c565b61090a565b3480156102c957600080fd5b506101e06102d8366004610fd8565b610976565b3480156102e957600080fd5b506101656102f8366004610eeb565b610a3b565b34801561030957600080fd5b50610140610318366004611073565b600560209081526000928352604080842090915290825290205460ff1681565b60006301ffc9a760e01b6001600160e01b03198316148061036957506380ac58cd60e01b6001600160e01b03198316145b806103845750635b5e139f60e01b6001600160e01b03198316145b92915050565b60008054610397906110a6565b80601f01602080910402602001604051908101604052809291908181526020018280546103c3906110a6565b80156104105780601f106103e557610100808354040283529160200191610410565b820191906000526020600020905b8154815290600101906020018083116103f357829003601f168201915b505050505081565b6000818152600260205260409020546001600160a01b03163381148061046157506001600160a01b038116600090815260056020908152604080832033845290915290205460ff165b6104a35760405162461bcd60e51b815260206004820152600e60248201526d1393d517d055551213d49256915160921b60448201526064015b60405180910390fd5b60008281526004602052604080822080546001600160a01b0319166001600160a01b0387811691821790925591518593918516917f8c5be1e5ebec7d5bd14f71427d1e84f3dd0314c0f7b2291e5b200ac8c7c3b92591a4505050565b6000818152600260205260409020546001600160a01b038481169116146105555760405162461bcd60e51b815260206004820152600a60248201526957524f4e475f46524f4d60b01b604482015260640161049a565b6001600160a01b03821661059f5760405162461bcd60e51b81526020600482015260116024820152701253959053125117d49150d25412515395607a1b604482015260640161049a565b336001600160a01b03841614806105d957506001600160a01b038316600090815260056020908152604080832033845290915290205460ff165b806105fa57506000818152600460205260409020546001600160a01b031633145b6106375760405162461bcd60e51b815260206004820152600e60248201526d1393d517d055551213d49256915160921b604482015260640161049a565b6001600160a01b0380841660008181526003602090815260408083208054600019019055938616808352848320805460010190558583526002825284832080546001600160a01b03199081168317909155600490925284832080549092169091559251849392917fddf252ad1be2c89b69c2b068fc378daa952ba7f163c4a11628f55a4df523b3ef91a4505050565b6106d18383836104ff565b6001600160a01b0382163b158061077a5750604051630a85bd0160e11b8082523360048301526001600160a01b03858116602484015260448301849052608060648401526000608484015290919084169063150b7a029060a4016020604051808303816000875af115801561074a573d6000803e3d6000fd5b505050506040513d601f19601f8201168201806040525081019061076e91906110e0565b6001600160e01b031916145b6107965760405162461bcd60e51b815260040161049a906110fd565b505050565b60006107a682610817565b6001600160a01b0316336001600160a01b0316146108065760405162461bcd60e51b815260206004820152601860248201527f4e46543a554e415554484f52495a45445f544f5f4255524e0000000000000000604482015260640161049a565b61080f82610a46565b506001919050565b6000818152600260205260409020546001600160a01b0316806108695760405162461bcd60e51b815260206004820152600a6024820152691393d517d3525395115160b21b604482015260640161049a565b919050565b60006001600160a01b0382166108b55760405162461bcd60e51b815260206004820152600c60248201526b5a45524f5f4144445245535360a01b604482015260640161049a565b506001600160a01b031660009081526003602052604090205490565b6000806006600081546108e390611127565b918290555090506108f48382610b13565b50600192915050565b60018054610397906110a6565b3360008181526005602090815260408083206001600160a01b03871680855290835292819020805460ff191686151590811790915590519081529192917f17307eab39ab6107e8899845ad3d59bd9653f200f220920489ca2b5937696c31910160405180910390a35050565b6109818585856104ff565b6001600160a01b0384163b1580610a185750604051630a85bd0160e11b808252906001600160a01b0386169063150b7a02906109c99033908a9089908990899060040161114e565b6020604051808303816000875af11580156109e8573d6000803e3d6000fd5b505050506040513d601f19601f82011682018060405250810190610a0c91906110e0565b6001600160e01b031916145b610a345760405162461bcd60e51b815260040161049a906110fd565b5050505050565b606061038482610be3565b6000818152600260205260409020546001600160a01b031680610a985760405162461bcd60e51b815260206004820152600a6024820152691393d517d3525395115160b21b604482015260640161049a565b6001600160a01b038116600081815260036020908152604080832080546000190190558583526002825280832080546001600160a01b031990811690915560049092528083208054909216909155518492907fddf252ad1be2c89b69c2b068fc378daa952ba7f163c4a11628f55a4df523b3ef908390a45050565b610b1d8282610c76565b6001600160a01b0382163b1580610bc35750604051630a85bd0160e11b80825233600483015260006024830181905260448301849052608060648401526084830152906001600160a01b0384169063150b7a029060a4016020604051808303816000875af1158015610b93573d6000803e3d6000fd5b505050506040513d601f19601f82011682018060405250810190610bb791906110e0565b6001600160e01b031916145b610bdf5760405162461bcd60e51b815260040161049a906110fd565b5050565b60606000610bf083610d81565b600101905060008167ffffffffffffffff811115610c1057610c106111a2565b6040519080825280601f01601f191660200182016040528015610c3a576020820181803683370190505b5090508181016020015b600019016f181899199a1a9b1b9c1cb0b131b232b360811b600a86061a8153600a8504945084610c4457509392505050565b6001600160a01b038216610cc05760405162461bcd60e51b81526020600482015260116024820152701253959053125117d49150d25412515395607a1b604482015260640161049a565b6000818152600260205260409020546001600160a01b031615610d165760405162461bcd60e51b815260206004820152600e60248201526d1053149150511657d3525395115160921b604482015260640161049a565b6001600160a01b038216600081815260036020908152604080832080546001019055848352600290915280822080546001600160a01b0319168417905551839291907fddf252ad1be2c89b69c2b068fc378daa952ba7f163c4a11628f55a4df523b3ef908290a45050565b60008072184f03e93ff9f4daa797ed6e38ed64bf6a1f0160401b8310610dc05772184f03e93ff9f4daa797ed6e38ed64bf6a1f0160401b830492506040015b6d04ee2d6d415b85acef81000000008310610dec576d04ee2d6d415b85acef8100000000830492506020015b662386f26fc100008310610e0a57662386f26fc10000830492506010015b6305f5e1008310610e22576305f5e100830492506008015b6127108310610e3657612710830492506004015b60648310610e48576064830492506002015b600a83106103845760010192915050565b6001600160e01b031981168114610e6f57600080fd5b50565b600060208284031215610e8457600080fd5b8135610e8f81610e59565b9392505050565b600060208083528351808285015260005b81811015610ec357858101830151858201604001528201610ea7565b81811115610ed5576000604083870101525b50601f01601f1916929092016040019392505050565b600060208284031215610efd57600080fd5b5035919050565b80356001600160a01b038116811461086957600080fd5b60008060408385031215610f2e57600080fd5b610f3783610f04565b946020939093013593505050565b600080600060608486031215610f5a57600080fd5b610f6384610f04565b9250610f7160208501610f04565b9150604084013590509250925092565b600060208284031215610f9357600080fd5b610e8f82610f04565b60008060408385031215610faf57600080fd5b610fb883610f04565b915060208301358015158114610fcd57600080fd5b809150509250929050565b600080600080600060808688031215610ff057600080fd5b610ff986610f04565b945061100760208701610f04565b935060408601359250606086013567ffffffffffffffff8082111561102b57600080fd5b818801915088601f83011261103f57600080fd5b81358181111561104e57600080fd5b89602082850101111561106057600080fd5b9699959850939650602001949392505050565b6000806040838503121561108657600080fd5b61108f83610f04565b915061109d60208401610f04565b90509250929050565b600181811c908216806110ba57607f821691505b6020821081036110da57634e487b7160e01b600052602260045260246000fd5b50919050565b6000602082840312156110f257600080fd5b8151610e8f81610e59565b60208082526010908201526f155394d0519157d49150d2541251539560821b604082015260600190565b60006001820161114757634e487b7160e01b600052601160045260246000fd5b5060010190565b6001600160a01b038681168252851660208201526040810184905260806060820181905281018290526000828460a0840137600060a0848401015260a0601f19601f85011683010190509695505050505050565b634e487b7160e01b600052604160045260246000fdfea26469706673582212208f75e51cb4794eeeed241450e292f51f850efd7d8b1ef17a47ff64f7cc046b8564736f6c634300080d0033",
    "linkReferences": {}
  },
  "methodIdentifiers": {
    "approve(address,uint256)": "095ea7b3",
    "balanceOf(address)": "70a08231",
    "burn(uint256)": "42966c68",
    "currentTokenId()": "009a9b7b",
    "getApproved(uint256)": "081812fc",
    "isApprovedForAll(address,address)": "e985e9c5",
    "mintTo(address)": "755edd17",
    "name()": "06fdde03",
    "ownerOf(uint256)": "6352211e",
    "safeTransferFrom(address,address,uint256)": "42842e0e",
    "safeTransferFrom(address,address,uint256,bytes)": "b88d4fde",
    "setApprovalForAll(address,bool)": "a22cb465",
    "supportsInterface(bytes4)": "01ffc9a7",
    "symbol()": "95d89b41",
    "tokenURI(uint256)": "c87b56dd",
    "transferFrom(address,address,uint256)": "23b872dd"
  },
  "id": 21
}